{"abi":[{"type":"constructor","inputs":[{"name":"_broadcasterAddress","type":"address","internalType":"address"}],"stateMutability":"nonpayable"},{"type":"function","name":"broadcastSimpleIntent","inputs":[{"name":"sourceChain","type":"uint8","internalType":"enum Chain"},{"name":"sourceToken","type":"address","internalType":"address"},{"name":"amount","type":"uint256","internalType":"uint256"},{"name":"destinationChain","type":"uint8","internalType":"enum Chain"},{"name":"destinationToken","type":"address","internalType":"address"},{"name":"recipient","type":"bytes32","internalType":"bytes32"},{"name":"refundAddress","type":"address","internalType":"address"},{"name":"maxFeeBudget","type":"uint256","internalType":"uint256"},{"name":"isLive","type":"bool","internalType":"bool"}],"outputs":[{"name":"broadcastId","type":"bytes32","internalType":"bytes32"}],"stateMutability":"nonpayable"},{"type":"function","name":"broadcaster","inputs":[],"outputs":[{"name":"","type":"address","internalType":"contract IIntentBroadcaster"}],"stateMutability":"view"},{"type":"function","name":"cancelIntent","inputs":[{"name":"broadcastId","type":"bytes32","internalType":"bytes32"}],"outputs":[],"stateMutability":"nonpayable"},{"type":"function","name":"getEscrowedAmount","inputs":[{"name":"broadcastId","type":"bytes32","internalType":"bytes32"}],"outputs":[{"name":"","type":"uint256","internalType":"uint256"}],"stateMutability":"view"},{"type":"function","name":"isExecuted","inputs":[{"name":"broadcastId","type":"bytes32","internalType":"bytes32"}],"outputs":[{"name":"","type":"bool","internalType":"bool"}],"stateMutability":"view"},{"type":"event","name":"IntentSent","inputs":[{"name":"broadcastId","type":"bytes32","indexed":true,"internalType":"bytes32"},{"name":"sender","type":"address","indexed":true,"internalType":"address"},{"name":"amount","type":"uint256","indexed":false,"internalType":"uint256"}],"anonymous":false}],"bytecode":{"object":"0x60a0346100d257601f6108af38819003918201601f19168301916001600160401b038311848410176100d6578084926020946040528339810103126100d257516001600160a01b038116908190036100d257801561008d576080526040516107c490816100eb8239608051818181608301528181610117015281816101a6015281816102af01526105ea0152f35b60405162461bcd60e51b815260206004820152601b60248201527f496e76616c69642062726f6164636173746572206164647265737300000000006044820152606490fd5b5f80fd5b634e487b7160e01b5f52604160045260245ffdfe6080806040526004361015610012575f80fd5b5f905f3560e01c908163aae718fc146105bf57508063ad9df660146101d5578063b2bac94214610191578063d55f960d146101035763e52cb36a14610055575f80fd5b346101005760203660031901126101005760405163071a0cbf60e21b815260048035908201526020816024817f00000000000000000000000000000000000000000000000000000000000000006001600160a01b03165afa9081156100f557602092916100c8575b506040519015158152f35b6100e89150823d84116100ee575b6100e0818361067b565b81019061069d565b5f6100bd565b503d6100d6565b6040513d84823e3d90fd5b80fd5b503461018d57602036600319011261018d577f00000000000000000000000000000000000000000000000000000000000000006001600160a01b0316803b1561018d575f809160246040518094819363782705e360e11b835260043560048401525af1801561018257610174575080f35b61018091505f9061067b565b005b6040513d5f823e3d90fd5b5f80fd5b3461018d575f36600319011261018d576040517f00000000000000000000000000000000000000000000000000000000000000006001600160a01b03168152602090f35b3461018d5761012036600319011261018d57600435604081101561018d576024356001600160a01b0381169081900361018d5760443590606435604081101561018d576084356001600160a01b038116949085900361018d5760c4356001600160a01b038116939084900361018d5760e43590610104359081151580920361018d57828701908188116105ab576040516323b872dd60e01b8152336004820152306024820152604481018390526020816064815f865af1908115610182575f9161058c575b50156105475760405163095ea7b360e01b81527f00000000000000000000000000000000000000000000000000000000000000006001600160a01b0316600482018190526024820184905297906020816044815f875af1908115610182575f91610528575b50156104ec5761030d6106b5565b996040519660c0880188811067ffffffffffffffff8211176104d8576040526103369088610701565b60208701976103459089610701565b604087019a8b526060870192338452608088019160a435835260a08901938452604051906103728261065f565b81528b60208201528c519061038682610721565b5261039090610721565b506103996106b5565b94604051916103a78361065f565b825260208201526103b785610721565b526103c184610721565b50604051637e3e1a3b60e01b8152608060048201529651969a8b9889986103ec9060848b0190610742565b5160a489016103fa91610742565b5160c4880160c0905261014488016104119161074f565b92516001600160a01b0390811660e489015290516101048801529051166101248601528481036003190160248601526104499161074f565b916044840152606483015203815a6020945f91f1908115610182575f916104a3575b60209250604051908152817f08a7742dbebf1c1dec8980f1f6c8470a2f39a0888ada8f2c221a029106b6bcfd843393a3604051908152f35b90506020823d6020116104d0575b816104be6020938361067b565b8101031261018d57602091519061046b565b3d91506104b1565b634e487b7160e01b5f52604160045260245ffd5b60405162461bcd60e51b8152602060048201526014602482015273151bdad95b88185c1c1c9bdd994819985a5b195960621b6044820152606490fd5b610541915060203d6020116100ee576100e0818361067b565b8b6102ff565b60405162461bcd60e51b815260206004820152601960248201527f546f6b656e207472616e7366657246726f6d206661696c6564000000000000006044820152606490fd5b6105a5915060203d6020116100ee576100e0818361067b565b8a61029a565b634e487b7160e01b5f52601160045260245ffd5b3461018d57602036600319011261018d57632ab9c63f60e21b815260048035908201526020816024817f00000000000000000000000000000000000000000000000000000000000000006001600160a01b03165afa8015610182575f9061062c575b602090604051908152f35b506020813d602011610657575b816106466020938361067b565b8101031261018d5760209051610621565b3d9150610639565b6040810190811067ffffffffffffffff8211176104d857604052565b90601f8019910116810190811067ffffffffffffffff8211176104d857604052565b9081602091031261018d5751801515810361018d5790565b604080519091906106c6838261067b565b6001815291601f1901825f5b8281106106de57505050565b6020906040516106ed8161065f565b5f81525f83820152828285010152016106d2565b604082101561070d5752565b634e487b7160e01b5f52602160045260245ffd5b80511561072e5760200190565b634e487b7160e01b5f52603260045260245ffd5b90604082101561070d5752565b90602080835192838152019201905f5b81811061076c5750505090565b825180518552602090810151818601526040909401939092019160010161075f56fea264697066735822122005b160545ebd17796b53271360b1e673f8f961fb1d51f468c71ade9cf654253464736f6c634300081e0033","linkReferences":{}},"methodIdentifiers":{"broadcastSimpleIntent(uint8,address,uint256,uint8,address,bytes32,address,uint256,bool)":"ad9df660","broadcaster()":"b2bac942","cancelIntent(bytes32)":"d55f960d","getEscrowedAmount(bytes32)":"aae718fc","isExecuted(bytes32)":"e52cb36a"},"id":1}